:100000000C942A000C943F000C943F000C943F0089
:100010000C943F000C943F000C943F000C943F0064
:100020000C943F000C943F000C943F000C943F0054
:100030000C943F000C943F000C943F000C943F0044
:100040000C943F000C943F000C943F000C943F0034
:100050000C943F0011241FBECFE5D8E0DEBFCDBF1A
:1000600010E0A0E6B0E0EAE9F4E002C005900D92ED
:10007000AE37B107D9F70E943C020C944B020C94A6
:100080000000611124C0813069F028F0823089F0CD
:100090008330B1F008958AE390E0909361008093FB
:1000A0006000089587E390E0909361008093600082
:1000B000089584E390E09093610080936000089538
:1000C00081E390E090936100809360000895613037
:1000D00019F5813069F028F0823089F08330B1F071
:1000E00008958BE390E09093610080936000089501
:1000F00088E390E09093610080936000089585E329
:1001000090E09093610080936000089582E390E016
:1001100090936100809360000895CF93C62F60E0B4
:100120000E944100C13039F4E0916000F09161001B
:100130008FEF808305C0E0916000F0916100108234
:10014000CF910895CF93C62F61E00E944100E091C6
:100150006000F0916100C083CF91089561E00E943A
:100160004100E0916000F091610080810895CF939B
:10017000DF93C62FD42F60E00E944100D11111C03F
:10018000E0916000F0916100208181E090E0BC018D
:1001900002C0660F771FCA95E2F7609562236083FD
:1001A0000FC0E0916000F0916100208181E090E05B
:1001B000BC0102C0660F771FCA95E2F7622B60830D
:1001C000DF91CF910895CF93DF93D62FC42F61E0B5
:1001D0000E944100C11111C0E0916000F0916100E6
:1001E000208181E090E0BC0102C0660F771FDA95A4
:1001F000E2F760956223608311C0C13079F4E09129
:100200006000F0916100208181E090E0BC0102C0BB
:10021000660F771FDA95E2F7622B6083DF91CF914B
:100220000895CF93C82F40E061E081E00E94E30091
:1002300040E062E081E00E94E30080E00E94AE00C6
:100240008F709C2F907F682F692B80E00E94A20006
:1002500041E063E081E00E94E30082E08A95F1F7EB
:1002600000C040E063E081E00E94E3008FEF8C0F6C
:10027000823038F58FE99FE00197F1F700C0000068
:1002800080E00E94AE008F7090E1C99FB001112400
:10029000682B80E00E94A20041E063E081E00E94C0
:1002A000E30082E08A95F1F700C040E063E081E07E
:1002B0000E94E3008FE99FE00197F1F700C0000082
:1002C00026C087EC90E00197F1F700C0000080E0C5
:1002D0000E94AE008F7090E1C99FB0011124682B7D
:1002E00080E00E94A20041E063E081E00E94E30020
:1002F00082E08A95F1F700C040E063E081E00E946F
:10030000E30087EC90E00197F1F700C00000CF9187
:10031000089541E061E081E00E94B70041E062E0C1
:1003200081E00E94B70041E063E081E00E94B700F5
:1003300040E061E081E00E94E30040E062E081E0B3
:100340000E94E30040E063E081E00E94E30061E09E
:1003500080E00E948D0060E080E00E94A20083E3C4
:100360000E94110182E30E94110188E20E941101A2
:100370008EE00E94110181E00E94110186E00E943E
:1003800011010895CF93C82F41E061E081E00E9400
:10039000E30040E062E081E00E94E30080E00E9430
:1003A000AE008F709C2F907F682F692B80E00E9499
:1003B000A20041E063E081E00E94E30082E08A95D0
:1003C000F1F700C040E063E081E00E94E30087ECC9
:1003D00090E00197F1F700C0000080E00E94AE00BD
:1003E0008F7090E1C99F90011124682F622B80E0EB
:1003F0000E94A20041E063E081E00E94E30082E00D
:100400008A95F1F700C040E063E081E00E94E300DC
:1004100087EC90E00197F1F700C00000CF910895BC
:10042000613021F481580E941101089581540E9485
:1004300011010895EF92FF920F931F93CF93DF93D3
:100440008C017C01C0E0D0E006C0F70181917F0102
:100450000E94C2012196F80101900020E9F731972E
:10046000E01BF10BCE17DF0780F3DF91CF911F91D7
:100470000F91FF90EF9008950E94890182E690E02D
:100480000E941A0262E081E00E9410028DE690E074
:0A0490000E941A02FFCFF894FFCF7C
:10049A003A004E616D65206973203A20004D6F68FD
:0E04AA00616E616420446172776973680000BE
:00000001FF
